:020000040800F2
:1000000000500020194900086949000869490008A2
:1000100069490008694900086949000800000000B2
:100020000000000000000000000000006949000816
:1000300069490008000000006949000825200008FF
:1000400069490008694900086949000869490008C8
:100050006949000869490008010600082D060008E2
:100060005906000885060008B1060008694900081D
:100070006949000869490008694900086949000898
:100080006949000869490008694900086949000888
:10009000694900086949000869490008DD06000847
:1000A000CD320008E132000805330008293300088A
:1000B00011340008613500087936000869490008E4
:1000C0006949000869490008694900086949000848
:1000D00069490008413A00087D3A0008B93A000829
:1000E0008D07000869490008000000006949000800
:1000F0006949000869490008694900086949000818
:100100006949000869490008694900086949000807
:1001100069490008694900086949000869490008F7
:1001200069490008694900086949000869490008E7
:1001300010B5054C237833B9044B13B10448AFF321
:1001400000800123237010BD00000020000000008B
:10015000B449000808B5034B1BB103490348AFF38A
:10016000008008BD0000000004000020B449000821
:100170007BB972B90029BEBF00204FF0004106E0F4
:1001800008BF00281CBF6FF000414FF0FF3000F0A7
:10019000A7B9ADF1080C6DE904CE002909DB002BED
:1001A0001ADB00F035F8DDF804E0DDE9022304B0E5
:1001B0007047404261EB4101002B1BDB00F028F847
:1001C000DDF804E0DDE9022304B0404261EB4101C7
:1001D000524263EB43037047524263EB430300F028
:1001E00017F8DDF804E0DDE9022304B0404261EBDA
:1001F00041017047524263EB430300F009F8DDF818
:1002000004E0DDE9022304B0524263EB430370478C
:100210002DE9F0478C460446089E002B4BD18A42BC
:10022000154667D9B2FA82F24AB1C2F1200701FA43
:1002300002F320FA07F7954047EA030C94404FEA8F
:10024000154EBCFBFEF71FFA85F80EFB17C307FB24
:1002500008F9210C41EA0343994509D9EB1807F144
:10026000FF3180F01C81994540F21981023F2B44F7
:10027000A3EB0903B3FBFEF00EFB103300FB08F108
:10028000A4B244EA0344A14209D92C1900F1FF3376
:1002900080F00781A14240F2048102382C4440EAF8
:1002A00007400027641A1EB10023D440C6E900436A
:1002B0003946BDE8F0878B4209D9002E00F0EC806A
:1002C0000027C6E9000138463946BDE8F087B3FA91
:1002D00083F7002F48D18B4202D3824200F2FB8089
:1002E000841A61EB030301209C46002EE0D0C6E98E
:1002F000004CDDE702B9FFDEB2FA82F2002A40F0DC
:100300008F800127491B4FEA15481FFA85F9B1FB79
:10031000F8FE08FB1E1109FB0EF04FEA144C4CEAE4
:100320000143984207D9EB180EF1FF3102D29842EF
:1003300000F2CD808E461B1AB3FBF8F008FB103399
:1003400009FB00F9A4B244EA0344A14507D92C19DA
:1003500000F1FF3302D2A14500F2B6801846A4EBAB
:10036000090440EA0E409EE7C7F12005BB4022FA8F
:1003700005FC4CEA030C21FA05F44FEA1C4EB4FBD1
:10038000FEF91FFA8CF80EFB194420FA05F3B94068
:1003900009FB08FA19430B0C43EA0444A24502FA8C
:1003A00007F200FA07F30BD91CEB040409F1FF3044
:1003B00080F08880A24540F28580A9F1020964445A
:1003C000A4EB0A04B4FBFEF00EFB104400FB08FA99
:1003D00089B241EA0444A24508D91CEB040400F1A7
:1003E000FF316BD2A24569D90238644440EA094022
:1003F000A0FB0289A4EB0A044C454146CE4654D3E7
:1004000051D0002E69D05A1A64EB0E0404FA05F597
:1004100022FA07F3FC401D43C6E90054002747E7D2
:100420009540C2F1200321FA03F04FEA1548B0FBD2
:10043000F8F71FFA85F908FB170024FA03F3914037
:1004400007FB09FC0B43190C41EA00418C4504FAF7
:1004500002F407D9691807F1FF3031D28C452FD942
:10046000023F2944A1EB0C01B1FBF8F008FB101C82
:1004700000FB09FE99B241EA0C418E4507D9691883
:1004800000F1FF3318D28E4516D902382944A1EB6A
:100490000E0140EA07473AE73746304608E70F467D
:1004A000E6E61846FBE64345ABD2B8EB020169EB42
:1004B0000C0201389646A4E71846E8E7084695E797
:1004C0000746CFE781467BE702382C4447E7AEF189
:1004D000020E2B442FE7384607E73746E8E600BF11
:1004E000704700BF80B400AF124B9B68114A43F0C5
:1004F000010393600F4B5B680E4A23F480735360D3
:100500000C4B9B680B4A23F400639360094B5B68B8
:10051000084A23F002035360064BDB6A054A23F4C2
:100520007003D362034B034ADB6AD36200BFBD464C
:1005300080BC70470024014080B485B000AF034602
:10054000FB71134AFB795363114B9B68104A43F0CC
:10055000010393600E4B9B680D4A43F48003936044
:1005600000BF0B4B1B685B0803F00103002BF8D0A6
:10057000074BDB6CFB81064B1B68054A23F002032B
:100580001360FB8918461437BD4680BC704700BF16
:100590000024014080B584B000AF0346FB71FB79B5
:1005A0001846FFF7C9FF0346FB81FB89642202FB63
:1005B00003F3002B01DA03F6FF731B13BB81BB8926
:1005C00018461037BD4680BD80B584B000AF0346E5
:1005D000FB71FB791846FFF7AFFF0346FB81FB89F0
:1005E0004FF4FA7202FB03F3002B01DA03F6FF73F8
:1005F0001B13BB81BB8918461037BD4680BD000068
:1006000080B500AF074B1B68002B08D0054B1B685B
:100610009847054B5B69044A43F00103536100BFEF
:1006200080BD00BF1C0000200004014080B500AF69
:10063000074B5B68002B08D0054B5B689847054B60
:100640005B69044A43F00203536100BF80BD00BFF1
:100650001C0000200004014080B500AF074B9B68E0
:10066000002B08D0054B9B689847054B5B69044AF3
:1006700043F00403536100BF80BD00BF1C00002095
:100680000004014080B500AF074BDB68002B08D0A9
:10069000054BDB689847054B5B69044A43F0080348
:1006A000536100BF80BD00BF1C000020000401405A
:1006B00080B500AF074B1B69002B08D0054B1B69A9
:1006C0009847054B5B69044A43F01003536100BF30
:1006D00080BD00BF1C0000200004014080B500AFB9
:1006E000284B5B695B0903F00103002B08D0264B04
:1006F0005B699847234B5B69224A43F020035361AF
:10070000204B5B699B0903F00103002B08D01E4BB3
:100710009B6998471B4B5B691A4A43F0400353613E
:10072000184B5B69DB0903F00103002B08D0164B63
:10073000DB699847134B5B69124A43F080035361AE
:10074000104B5B691B0A03F00103002B08D00E4B12
:100750001B6A98470B4B5B690A4A43F480735361E9
:10076000084B5B695B0A03F00103002B08D0064BC2
:100770005B6A9847034B5B69024A43F40073536119
:1007800000BF80BD000401401C00002080B500AF08
:10079000304B5B699B0A03F00103002B08D02E4B02
:1007A0009B6A98472B4B5B692A4A43F480635361E9
:1007B000284B5B69DB0A03F00103002B08D0264BB2
:1007C000DB6A9847234B5B69224A43F40063536119
:1007D000204B5B691B0B03F00103002B08D01E4B61
:1007E0001B6B98471B4B5B691A4A43F48053536158
:1007F000184B5B695B0B03F00103002B08D0164B11
:100800005B6B9847134B5B69124A43F40053536187
:10081000104B5B699B0B03F00103002B08D00E4BC0
:100820009B6B98470B4B5B690A4A43F480435361C7
:10083000084B5B69DB0B03F00103002B08D0064B70
:10084000DB6B9847034B5B69024A43F400435361F7
:1008500000BF80BD000401401C00002080B485B0B2
:1008600000AF03460A46FB711346BB71FB7903F0E8
:100870000F03FB73FB791B09BB73FB792F2B00F272
:10088000C487BB7B012B00F0A582022B00F03685CC
:10089000002B01D000F0B9BFFB7B072B00F2488191
:1008A000BB798F2B23D10823BB719F4B1A68FB7B2D
:1008B0009B000F2101FA03F3DB439B4913400B60BC
:1008C000994B1A68B979FB7B9B0001FA03F39649AF
:1008D00013430B60954B1B68FA7B012101FA02F26E
:1008E000D2431146914A0B40136000F08EBFBB7992
:1008F000082B20D18C4B1A68FB7B9B000F2101FA3F
:1009000003F3DB43884913400B60874B1A68B979BE
:10091000FB7B9B0001FA03F3834913430B60834B7A
:100920001B68FA7B012101FA02F211467F4A0B4350
:10093000136000F06ABFBB792F2B23D10223BB7158
:10094000794B1A68FB7B9B000F2101FA03F3DB4311
:10095000754913400B60744B1A68B979FB7B9B0097
:1009600001FA03F3704913430B60704B1B68FA7B69
:10097000012101FA02F2D24311466C4A0B40136086
:1009800000F043BFBB79022B20D1674B1A68FB7B79
:100990009B000F2101FA03F3DB43634913400B6013
:1009A000614B1A68B979FB7B9B0001FA03F35E493E
:1009B00013430B605D4B1B68FA7B012101FA02F2C5
:1009C00011465A4A0B43136000F01FBFBB791F2B1F
:1009D00023D10123BB71544B1A68FB7B9B000F2171
:1009E00001FA03F3DB43504913400B604E4B1A6886
:1009F000B979FB7B9B0001FA03F34B4913430B606E
:100A00004A4B1B68FA7B012101FA02F2D2431146DC
:100A1000464A0B40136000F0F8BEBB79012B20D191
:100A2000414B1A68FB7B9B000F2101FA03F3DB4368
:100A30003D4913400B603C4B1A68B979FB7B9B0026
:100A400001FA03F3384913430B60384B1B68FA7BF8
:100A5000012101FA02F21146344A0B43136000F0FF
:100A6000D4BEBB793F2B23D10323BB712E4B1A6815
:100A7000FB7B9B000F2101FA03F3DB432A49134060
:100A80000B60294B1A68B979FB7B9B0001FA03F3D1
:100A9000254913430B60254B1B68FA7B012101FAA2
:100AA00002F2D2431146214A0B40136000F0ADBE62
:100AB000BB79032B20D11C4B1A68FB7B9B000F21B9
:100AC00001FA03F3DB43184913400B60164B1A6815
:100AD000B979FB7B9B0001FA03F3134913430B60C5
:100AE000124B1B68FA7B012101FA02F211460F4AF0
:100AF0000B43136000F089BE0B4B1A68FB7B9B0015
:100B00000F2101FA03F3DB43074913400B60064B47
:100B10001A68B979FB7B9B0001FA03F3024913437E
:100B20000B6000F072BE00BF000801400C080140DD
:100B3000FB7B083BFB73BB798F2B24D10823BB7154
:100B4000A24B1A68FB7B9B000F2101FA03F3DB43E6
:100B50009E4913400B609D4B1A68B979FB7B9B0043
:100B600001FA03F3994913430B60994B1B68FA7B15
:100B70000832012101FA02F2D2431146944A0B4095
:100B8000136000F042BEBB79082B21D18F4B1A684D
:100B9000FB7B9B000F2101FA03F3DB438B491340DE
:100BA0000B608A4B1A68B979FB7B9B0001FA03F34F
:100BB000864913430B60864B1B68FA7B0832012180
:100BC00001FA02F21146824A0B43136000F01DBE87
:100BD000BB792F2B24D10223BB717C4B1A68FB7B82
:100BE0009B000F2101FA03F3DB43784913400B60AC
:100BF000764B1A68B979FB7B9B0001FA03F37349C2
:100C000013430B60724B1B68FA7B0832012101FA17
:100C100002F2D24311466E4A0B40136000F0F5BD5C
:100C2000BB79022B21D1694B1A68FB7B9B000F21FA
:100C300001FA03F3DB43654913400B60634B1A6809
:100C4000B979FB7B9B0001FA03F3604913430B6006
:100C50005F4B1B68FA7B0832012101FA02F2114650
:100C60005B4A0B43136000F0D0BDBB791F2B24D12E
:100C70000123BB71554B1A68FB7B9B000F2101FAC6
:100C800003F3DB43514913400B60504B1A68B979A9
:100C9000FB7B9B0001FA03F34C4913430B604C4B65
:100CA0001B68FA7B0832012101FA02F2D243114695
:100CB000474A0B40136000F0A8BDBB79012B21D13E
:100CC000424B1A68FB7B9B000F2101FA03F3DB43C5
:100CD0003E4913400B603D4B1A68B979FB7B9B0082
:100CE00001FA03F3394913430B60394B1B68FA7B54
:100CF0000832012101FA02F21146354A0B43136012
:100D000000F083BDBB793F2B24D10323BB712F4B54
:100D10001A68FB7B9B000F2101FA03F3DB432B498D
:100D200013400B60294B1A68B979FB7B9B0001FAD1
:100D300003F3264913430B60254B1B68FA7B0832EB
:100D4000012101FA02F2D2431146214A0B401360FD
:100D500000F05BBDBB79032B21D11C4B1A68FB7BD8
:100D60009B000F2101FA03F3DB43184913400B608A
:100D7000164B1A68B979FB7B9B0001FA03F3134900
:100D800013430B60124B1B68FA7B0832012101FAF6
:100D900002F211460E4A0B43136000F036BD0B4BB6
:100DA0001A68FB7B9B000F2101FA03F3DB43074921
:100DB00013400B60054B1A68B979FB7B9B0001FA65
:100DC00003F3024913430B6000F01FBD0408014008
:100DD0000C080140FB7B072B00F24681BB798F2B6F
:100DE00023D10823BB719E4B1A68FB7B9B000F210C
:100DF00001FA03F3DB439A4913400B60984B1A68DE
:100E0000B979FB7B9B0001FA03F3954913430B600F
:100E1000944B1B68FA7B012101FA02F2D24311467E
:100E2000904A0B40136000F0F0BCBB79082B20D136
:100E30008B4B1A68FB7B9B000F2101FA03F3DB430A
:100E4000874913400B60864B1A68B979FB7B9B007E
:100E500001FA03F3824913430B60824B1B68FA7B50
:100E6000012101FA02F211467E4A0B43136000F0A1
:100E7000CCBCBB792F2B23D10223BB71784B1A68D2
:100E8000FB7B9B000F2101FA03F3DB437449134002
:100E90000B60734B1A68B979FB7B9B0001FA03F373
:100EA0006F4913430B606F4B1B68FA7B012101FAFA
:100EB00002F2D24311466B4A0B40136000F0A5BC0E
:100EC000BB79022B20D1664B1A68FB7B9B000F215C
:100ED00001FA03F3DB43624913400B60604B1A686D
:100EE000B979FB7B9B0001FA03F35D4913430B6067
:100EF0005C4B1B68FA7B012101FA02F21146594A48
:100F00000B43136000F081BCBB791F2B23D101235D
:100F1000BB71534B1A68FB7B9B000F2101FA03F353
:100F2000DB434F4913400B604D4B1A68B979FB7B8B
:100F30009B0001FA03F34A4913430B60494B1B68BA
:100F4000FA7B012101FA02F2D2431146454A0B40D5
:100F5000136000F05ABCBB79012B20D1404B1A68BA
:100F6000FB7B9B000F2101FA03F3DB433C49134059
:100F70000B603B4B1A68B979FB7B9B0001FA03F3CA
:100F8000374913430B60374B1B68FA7B012101FA89
:100F900002F21146334A0B43136000F036BCBB79B2
:100FA0003F2B23D10323BB712D4B1A68FB7B9B0086
:100FB0000F2101FA03F3DB43294913400B60284B4F
:100FC0001A68B979FB7B9B0001FA03F324491343A8
:100FD0000B60244B1B68FA7B012101FA02F2D24319
:100FE0001146204A0B40136000F00FBCBB79032B65
:100FF0001FD11B4B1A68FB7B9B000F2101FA03F3E7
:10100000DB43174913400B60154B1A68B979FB7B1A
:101010009B0001FA03F3124913430B60114B1B6849
:10102000FA7B012101FA02F211460E4A0B431360CA
:10103000EBE30B4B1A68FB7B9B000F2101FA03F3D8
:10104000DB43074913400B60054B1A68B979FB7BFA
:101050009B0001FA03F3024913430B60D5E300BF81
:10106000000C01400C0C0140FB7B083BFB73BB797F
:101070008F2B23D10823BB719E4B1A68FB7B9B00EF
:101080000F2101FA03F3DB439A4913400B60994B9C
:101090001A68B979FB7B9B0001FA03F39549134366
:1010A0000B60954B1B68FA7B0832012101FA02F2B2
:1010B000D2431146904A0B401360A6E3BB79082B3C
:1010C00020D18C4B1A68FB7B9B000F2101FA03F3A4
:1010D000DB43884913400B60864B1A68B979FB7B68
:1010E0009B0001FA03F3834913430B60824B1B6897
:1010F000FA7B0832012101FA02F211467E4A0B43C3
:10110000136082E3BB792F2B23D10223BB71794B70
:101110001A68FB7B9B000F2101FA03F3DB4375493F
:1011200013400B60734B1A68B979FB7B9B0001FA83
:1011300003F3704913430B606F4B1B68FA7B083253
:10114000012101FA02F2D24311466B4A0B401360AF
:101150005BE3BB79022B20D1664B1A68FB7B9B00BB
:101160000F2101FA03F3DB43624913400B60614B2B
:101170001A68B979FB7B9B0001FA03F35D491343BD
:101180000B605D4B1B68FA7B0832012101FA02F209
:101190001146594A0B43136037E3BB791F2B23D108
:1011A0000123BB71534B1A68FB7B9B000F2101FA93
:1011B00003F3DB434F4913400B604E4B1A68B97978
:1011C000FB7B9B0001FA03F34A4913430B604A4B34
:1011D0001B68FA7B0832012101FA02F2D243114660
:1011E000454A0B40136010E3BB79012B20D1414BE2
:1011F0001A68FB7B9B000F2101FA03F3DB433D4997
:1012000013400B603B4B1A68B979FB7B9B0001FADA
:1012100003F3384913430B60374B1B68FA7B0832E2
:10122000012101FA02F21146334A0B431360ECE24A
:10123000BB793F2B23D10323BB712E4B1A68FB7B59
:101240009B000F2101FA03F3DB432A4913400B6093
:10125000284B1A68B979FB7B9B0001FA03F32549F7
:1012600013430B60244B1B68FA7B0832012101FAFF
:1012700002F2D2431146204A0B401360C5E2BB790B
:10128000032B20D11B4B1A68FB7B9B000F2101FA1B
:1012900003F3DB43174913400B60164B1A68B97907
:1012A000FB7B9B0001FA03F3124913430B60124BC3
:1012B0001B68FA7B0832012101FA02F211460E4A3C
:1012C0000B431360A1E20B4B1A68FB7B9B000F21C1
:1012D00001FA03F3DB43074913400B60054B1A681F
:1012E000B979FB7B9B0001FA03F3024913430B60BE
:1012F0008BE200BF040C01400C0C0140FB7B072B70
:1013000000F23E81BB798F2B22D10823BB719A4B0F
:101310001A68FB7B9B000F2101FA03F3DB4396491C
:1013200013400B60944B1A68B979FB7B9B0001FA60
:1013300003F3914913430B60904B1B68FA7B012127
:1013400001FA02F2D24311468C4A0B4013605CE270
:10135000BB79082B1FD1884B1A68FB7B9B000F21A0
:1013600001FA03F3DB43844913400B60824B1A6894
:10137000B979FB7B9B0001FA03F37F4913430B60B0
:101380007E4B1B68FA7B012101FA02F211467B4A6F
:101390000B43136039E2BB792F2B22D10223BB719F
:1013A000754B1A68FB7B9B000F2101FA03F3DB43AB
:1013B000714913400B60704B1A68B979FB7B9B0035
:1013C00001FA03F36C4913430B606C4B1B68FA7B07
:1013D000012101FA02F2D2431146684A0B40136020
:1013E00013E2BB79022B1FD1634B1A68FB7B9B0076
:1013F0000F2101FA03F3DB435F4913400B605E4B9F
:101400001A68B979FB7B9B0001FA03F35A4913432D
:101410000B605A4B1B68FA7B012101FA02F211465C
:10142000564A0B431360F0E1BB791F2B22D10123F5
:10143000BB71514B1A68FB7B9B000F2101FA03F330
:10144000DB434D4913400B604B4B1A68B979FB7B6A
:101450009B0001FA03F3484913430B60474B1B6899
:10146000FA7B012101FA02F2D2431146434A0B40B2
:101470001360CAE1BB79012B1FD13F4B1A68FB7B7C
:101480009B000F2101FA03F3DB433B4913400B6040
:10149000394B1A68B979FB7B9B0001FA03F3364993
:1014A00013430B60354B1B68FA7B012101FA02F2F2
:1014B0001146324A0B431360A7E1BB793F2B22D17F
:1014C0000323BB712C4B1A68FB7B9B000F2101FA95
:1014D00003F3DB43284913400B60274B1A68B979A3
:1014E000FB7B9B0001FA03F3234913430B60234B5F
:1014F0001B68FA7B012101FA02F2D24311461F4A0E
:101500000B40136081E1BB79032B1FD11A4B1A6882
:10151000FB7B9B000F2101FA03F3DB4316491340C9
:101520000B60154B1A68B979FB7B9B0001FA03F33A
:10153000114913430B60114B1B68FA7B012101FA1F
:1015400002F211460D4A0B4313605EE10A4B1A6822
:10155000FB7B9B000F2101FA03F3DB430649134099
:101560000B60054B1A68B979FB7B9B0001FA03F30A
:10157000014913430B6048E1001001400C10014089
:10158000FB7B083BFB73BB798F2B23D10823BB71FB
:10159000A04B1A68FB7B9B000F2101FA03F3DB438E
:1015A0009C4913400B609B4B1A68B979FB7B9B00ED
:1015B00001FA03F3974913430B60974B1B68FA7BBF
:1015C0000832012101FA02F2D2431146924A0B403D
:1015D00013601AE1BB79082B20D18E4B1A68FB7B74
:1015E0009B000F2101FA03F3DB438A4913400B6090
:1015F000884B1A68B979FB7B9B0001FA03F3854994
:1016000013430B60844B1B68FA7B0832012101FAFB
:1016100002F21146804A0B431360F6E0BB792F2B90
:1016200023D10223BB717B4B1A68FB7B9B000F21EC
:1016300001FA03F3DB43774913400B60754B1A68DB
:10164000B979FB7B9B0001FA03F3724913430B60EA
:10165000714B1B68FA7B0832012101FA02F2D24376
:1016600011466D4A0B401360CFE0BB79022B20D1AD
:10167000684B1A68FB7B9B000F2101FA03F3DB43E5
:10168000644913400B60634B1A68B979FB7B9B007C
:1016900001FA03F35F4913430B605F4B1B68FA7B4E
:1016A0000832012101FA02F211465B4A0B43136032
:1016B000ABE0BB791F2B23D10123BB71554B1A68BB
:1016C000FB7B9B000F2101FA03F3DB4351491340DD
:1016D0000B60504B1A68B979FB7B9B0001FA03F34E
:1016E0004C4913430B604C4B1B68FA7B08320121B9
:1016F00001FA02F2D2431146474A0B40136084E0DC
:10170000BB79012B20D1434B1A68FB7B9B000F2137
:1017100001FA03F3DB433F4913400B603D4B1A686A
:10172000B979FB7B9B0001FA03F33A4913430B6041
:10173000394B1B68FA7B0832012101FA02F211468B
:10174000354A0B43136060E0BB793F2B23D1032361
:10175000BB71304B1A68FB7B9B000F2101FA03F32E
:10176000DB432C4913400B602A4B1A68B979FB7B89
:101770009B0001FA03F3274913430B60264B1B68B8
:10178000FA7B0832012101FA02F2D2431146224AC1
:101790000B40136039E0BB79032B20D11D4B1A6835
:1017A000FB7B9B000F2101FA03F3DB431949134034
:1017B0000B60184B1A68B979FB7B9B0001FA03F3A5
:1017C000144913430B60144B1B68FA7B0832012148
:1017D00001FA02F21146104A0B43136015E00D4B5B
:1017E0001A68FB7B9B000F2101FA03F3DB430949D5
:1017F00013400B60074B1A68B979FB7B9B0001FA19
:1018000003F3044913430B6000BF00BF1437BD4608
:1018100080BC7047041001400C10014080B485B0BA
:1018200000AF03460A46FB711346BB71FB7903F018
:101830000F03FB73FB791B09BB73FB792F2B61D85B
:10184000BB7B012B22D0022B3ED0002B00D059E0D5
:10185000BB79002B0DD0012B00D053E02C4B1B6823
:10186000FA7B012101FA02F21146294A0B43136067
:101870000BE0274B1B68FA7B012101FA02F2D243ED
:101880001146234A0B40136000BF3BE0BB79002B9D
:101890000DD0012B00D035E01E4B1B68FA7B0121D7
:1018A00001FA02F211461B4A0B4313600BE0194B7D
:1018B0001B68FA7B012101FA02F2D2431146154A54
:1018C0000B40136000BF1DE0BB79002B0DD0012B36
:1018D00000D017E0104B1B68FA7B012101FA02F2DD
:1018E00011460D4A0B4313600BE00B4B1B68FA7B50
:1018F000012101FA02F2D2431146074A0B4013605C
:1019000000BF00BF00BF1437BD4680BC704700BF9A
:101910000C0801400C0C01400C10014080B582B055
:1019200000AF0023FB710AE0FB79084AD25CFB7927
:1019300011461846FEF792FFFB790133FB71FB79E4
:101940002F2BF1D900BF0837BD4680BD044B0008DE
:1019500080B485B000AF78600023FB600DE0002309
:101960007B8103E000BF7B8901337B817B89B3F5F9
:101970000D7FF7D9FB680133FB60FA687B689A42F8
:10198000EDD300BF1437BD4680BC704780B582B030
:1019900000AF0346FB7101210220FFF73FFFFB79F7
:1019A000DB09DBB219460720FFF738FFFB799B09FB
:1019B000DBB203F00103DBB219460620FFF72EFF6E
:1019C000FB795B09DBB203F00103DBB219460520AA
:1019D000FFF724FFFB791B09DBB203F00103DBB245
:1019E00019460420FFF71AFF01210320FFF716FF15
:1019F0000120FFF7ADFF00210320FFF70FFF0120BB
:101A0000FFF7A6FFFB79DB08DBB203F00103DBB2D3
:101A100019460720FFF702FFFB799B08DBB203F0B2
:101A20000103DBB219460620FFF7F8FEFB795B08DD
:101A3000DBB203F00103DBB219460520FFF7EEFE2F
:101A4000FB7903F00103DBB219460420FFF7E6FE41
:101A500001210320FFF7E2FE0120FFF779FF0021BB
:101A60000320FFF7DBFE0120FFF772FF00BF0837FE
:101A7000BD4680BD80B582B000AF0346FB7100213A
:101A80000220FFF7CBFEFB79DB09DBB2194607200A
:101A9000FFF7C4FEFB799B09DBB203F00103DBB265
:101AA00019460620FFF7BAFEFB795B09DBB203F0AB
:101AB0000103DBB219460520FFF7B0FEFB791B09D5
:101AC000DBB203F00103DBB219460420FFF7A6FEE8
:101AD00001210320FFF7A2FE0120FFF739FF0021BB
:101AE0000320FFF79BFE0120FFF732FFFB79DB08A5
:101AF000DBB203F00103DBB219460720FFF78EFECD
:101B0000FB799B08DBB203F00103DBB21946062028
:101B1000FFF784FEFB795B08DBB203F00103DBB265
:101B200019460520FFF77AFEFB7903F00103DBB2CB
:101B300019460420FFF772FE01210320FFF76EFE15
:101B40000120FFF705FF00210320FFF767FE0120BA
:101B5000FFF7FEFE00BF0837BD4680BD80B500AF71
:101B60003220FFF7F5FE0220FFF784FF3220FFF757
:101B7000EFFE2820FFF77EFF0120FFF7E9FE0C2093
:101B8000FFF778FF0120FFF7E3FE0120FFF772FF68
:101B90000220FFF7DDFE0620FFF76CFF0220FFF7B3
:101BA000D7FE00BF80BD80B582B000AF0346FB7199
:101BB000FB791846FFF7EAFE00BF0837BD4680BD37
:101BC00080B584B000AF78600023FB7309E0FB7B35
:101BD0007A6813441B781846FFF7E5FFFB7B013357
:101BE000FB73FB7B7A6813441B78002BEFD100BF9B
:101BF0001037BD4680BD90B589B000AFC7E9000180
:101C000007F10C0300221A605A609A60DA60002320
:101C1000FB770023BB77D7E90034234303D130207F
:101C2000FFF7C1FF90E0D7E90034012B74F1000306
:101C30003BDB21E0D7E900014FF00A024FF000033F
:101C4000FEF796FA1C46134619462246FB7FCAB297
:101C500007F120010B4403F8142CD7E900014FF0E1
:101C60000A024FF00003FEF783FA03460C46C7E969
:101C70000034FB7F0133FB77D7E900342343D9D10C
:101C8000FB7F013BBB77BB7F07F12002134413F8B6
:101C9000143C3033DBB21846FFF785FFBB7F002BC7
:101CA0004FD0BB7F013BBB77EDE7D7E90034002B7A
:101CB00074F1000348DA2D20FFF775FFD7E90034EF
:101CC0005B4264EB4404C7E9003421E0D7E900013A
:101CD0004FF00A024FF00003FEF74AFA1C46134683
:101CE00019462246FB7FCAB207F120010B4403F8D4
:101CF000142CD7E900014FF00A024FF00003FEF761
:101D000037FA03460C46C7E90034FB7F0133FB7703
:101D1000D7E900342343D9D1FB7F013BBB77BB7F9D
:101D200007F12002134413F8143C3033DBB2184699
:101D3000FFF739FFBB7F002B05D0BB7F013BBB7793
:101D4000EDE700BF00E000BF00BF2437BD4690BDF7
:101D500080B582B000AF03460A46FB711346BB71E3
:101D6000FB79002B06D1BB79803BDBB21846FFF72D
:101D700081FE08E0FB79012B05D1BB79403BDBB24A
:101D80001846FFF777FE00BF0837BD4680BD80B517
:101D900082B000AF0346FB710B46BB7113467B71EB
:101DA000BA79FB7911461846FFF7D2FF7B791846BE
:101DB000FFF7F9FE00BF0837BD4680BD80B582B091
:101DC00000AF03463A60FB710B46BB71BA79FB79F1
:101DD00011461846FFF7BCFF3868FFF7F1FE00BF59
:101DE0000837BD4680BD80B584B000AFC7E9002389
:101DF0000346FB730B46BB73BA7BFB7B114618464D
:101E0000FFF7A6FFD7E90001FFF7F5FE00BF103787
:101E1000BD4680BD80B483B000AF00237B60304BF3
:101E20001B682F4A23F0800313602D4B1B682C4A3C
:101E300023F4806313602A4B1B68294A23F4005360
:101E40001360274B1B68264A43F480431360244BDE
:101E50001B68234A23F400431360214B1B68204A6C
:101E600043F0010313601E4B1B681D4A23F002035D
:101E700013601C4B1B681B4A23F480231360194B0F
:101E80001B68184A43F48033136002E07B68013317
:101E90007B60144B1B6803F40033002B04D17B6878
:101EA00042F210729342F1D100237B6002E07B6822
:101EB00001337B600A4B1B6803F00403002B0AD13B
:101EC000074B1B6803F00803002B04D07B6842F229
:101ED00010729342EBD100BF0C37BD4680BC7047F7
:101EE000041002400010024080B485B000AF0346E9
:101EF000FB71FB79022B49D8FB79012B30D0022BE7
:101F000018D0002B00D041E00023FB730EE0224BE1
:101F10001B68FA7B21498A5C114601228A401146DE
:101F20001D4A0B431360FB7B0133FB73FB7B092BC7
:101F3000EDD92BE00023BB730EE0194B1B68BA7B75
:101F400018498A5C114601228A401146144A0B4303
:101F50001360BB7B0133BB73BB7B0B2BEDD915E04F
:101F600000237B730EE0104B1B687A7B0F498A5C61
:101F7000114601228A4011460B4A0B4313607B7BBA
:101F800001337B737B7B142BEDD900BF00BF14376B
:101F9000BD4680BC704700BF14100240344B00089F
:101FA00018100240404B00081C1002404C4B000827
:101FB00080B400AF034B00221A6000BFBD4680BC56
:101FC000704700BF10E000E080B483B000AF7860DD
:101FD0007B68B3F1807F1DD8114A7B685360104B3A
:101FE0001B680F4A43F00103136000E000BF0C4B75
:101FF0001B681B0C03F00103002BF7D0084B1B6878
:10200000074A23F001031360054B00225A60044B7A
:1020100000229A6000BF0C37BD4680BC704700BFED
:1020200010E000E080B582B000AF124B1B78012BAE
:1020300011D1114B1B68104A23F0020313600E4BA1
:102040001B680D4A23F0010313600B4B00225A60FA
:10205000094B00229A60094B1B689847064B1B6886
:102060001B0CDBB203F00103FB7100BF0837BD4658
:1020700080BD00BF6000002010E000E05C00002098
:1020800080B483B000AF78607B681B78032B00F2CC
:10209000E08001A252F823F0ED210008A9200008F9
:1020A00021210008872100084FF080431B687A68CF
:1020B0005278D20111464FF080420B4313607B6887
:1020C0009B78002B03D07B689B78012B0BD14FF0C2
:1020D00080431B687A689278120111464FF0804263
:1020E0000B4313600AE04FF080431B687A689278D4
:1020F000520111464FF080420B4313604FF0804372
:102100001B687A68D278D20011464FF080420B43A8
:1021100013607B689B885A1C4FF080439A6298E05A
:102120004E4B1B687A685278D20111464B4A0B43DA
:1021300013607B689B78002B03D07B689B78012B16
:1021400009D1464B1B687A68927812011146434ABE
:102150000B43136008E0414B1B687A689278520188
:1021600011463E4A0B4313603C4B1B687A68D27899
:10217000D2001146394A0B4313607B689B885A1C76
:10218000364B9A6265E0364B1B687A685278D2010A
:102190001146334A0B4313607B689B78002B03D0B6
:1021A0007B689B78012B09D12D4B1B687A6892784C
:1021B000120111462A4A0B43136008E0284B1B68A2
:1021C0007A68927852011146254A0B431360244BDA
:1021D0001B687A68D278D2001146214A0B431360FB
:1021E0007B689B885A1C1E4B9A6232E01D4B1B6811
:1021F0007A685278D20111461A4A0B4313607B6801
:102200009B78002B03D07B689B78012B09D1154B61
:102210001B687A68927812011146124A0B431360C8
:1022200008E0104B1B687A689278520111460D4AFB
:102230000B4313600B4B1B687A68D278D2001146AF
:10224000084A0B4313607B689B885A1C054B9A62B3
:1022500000BF00BF0C37BD4680BC70470004004083
:1022600000080040002C014080B485B000AF7860C9
:102270000023FB810023BB817B681B78032B01F2C9
:102280001A8001A252F823F099220008772600084C
:102290000D2B0008D32E00087F4B1B687E4A23F0CD
:1022A000040313607B689B78002B09D17A4B1B6871
:1022B0007A68927812011146774A0B43136008E05E
:1022C000754B1B687A68927852011146724A0B432B
:1022D00013607B685B78002B6DD16F4B9B696E4AF6
:1022E00023F0010393616C4B9B696B4A23F002035B
:1022F0009361694B9B697A68D27812011146664AEC
:102300000B439361644B9B69634A43F008039361F9
:10231000614B1B68604A43F0800313607B689B68D5
:102320005E4AB2FBF3F39BB27A68928802FB03F336
:10233000FB81594AFB89D3627B68DB78062B0FD17E
:102340007B681B7B1A46FB8903FB02F31A46544B3E
:10235000A3FB02235B09BB814F4ABB89536310E097
:102360007B681B7B1A46FB8903FB02F34C4AA2FBEA
:1023700003235B099BB2FA89D31ABB81464ABB8906
:102380005363454B5B69444A43F001035361424B3D
:102390001B6A414A23F0020313623F4B1B6A3E4A09
:1023A00043F0010313623C4B1B683B4A43F00103BB
:1023B000136000F07BBF7B685B78012B72D1364BDA
:1023C0009B69354A23F480739361334B9B69324A8E
:1023D00023F400739361304B9B697A68D2781203BF
:1023E00011462D4A0B4393612B4B9B692A4A43F4B8
:1023F00000639361284B1B68274A43F080031360F6
:102400007B689B687A68928802FB03F3234AB2FBDD
:10241000F3F3FB81204AFB89D3627B68DB78062BD0
:102420000FD17B681B7B1A46FB8903FB02F31A461C
:102430001B4BA3FB02235B09BB81174ABB89936338
:1024400010E07B681B7B1A46FB8903FB02F3144AEE
:10245000A2FB03235B099BB2FA89D31ABB810E4A04
:10246000BB8993630C4B5B690B4A43F001035361D7
:10247000094B1B6A084A23F020031362064B1B6AB0
:10248000054A43F010031362034B1B68024A43F0F2
:102490000103136000F00ABF002C014040420F000E
:1024A0001F85EB517B685B78022B72D17E4BDB6919
:1024B0007D4A23F00103D3617B4BDB697A4A23F029
:1024C0000203D361784BDB697A68D2781201114636
:1024D000754A0B43D361744BDB69734A43F00803BD
:1024E000D361714B1B68704A43F0800313607B68B3
:1024F0009B687A68928802FB03F36C4AB2FBF3F3A1
:10250000FB81694AFB89D3627B68DB78062B0FD19C
:102510007B681B7B1A46FB8903FB02F31A46644B5C
:10252000A3FB02235B09BB815F4ABB89D36310E035
:102530007B681B7B1A46FB8903FB02F35C4AA2FB08
:1025400003235B099BB2FA89D31ABB81564ABB8924
:10255000D363554B1B68544A23F002031360524B5C
:102560005B69514A43F0010353614F4B1B6A4E4A6A
:1025700023F4007313624C4B1B6A4B4A43F4807381
:102580001362494B1B68484A43F00103136000F093
:102590008DBE7B685B78032B40F08886424BDB69FD
:1025A000414A23F48073D3613F4BDB693E4A23F4F5
:1025B0000073D3613C4BDB697A68D2781203114611
:1025C000394A0B43D361384BDB69374A43F4006324
:1025D000D361354B1B68344A43F0800313607B683A
:1025E0009B687A68928802FB03F3304AB2FBF3F3EC
:1025F000FB812D4AFB89D3627B68DB78062B0FD1E8
:102600007B681B7B1A46FB8903FB02F31A46284BA7
:10261000A3FB02235B09BB81234ABB89136410E03F
:102620007B681B7B1A46FB8903FB02F3204AA2FB53
:1026300003235B099BB2FA89D31ABB811A4ABB896F
:102640001364194B5B69184A43F001035361164B3D
:102650001B6A154A23F400531362134B1B6A124A78
:1026600043F480531362104B1B680F4A43F001037D
:10267000136000F01BBE4FF080431B684FF0804298
:1026800023F0040313607B689B78002B12D14FF07A
:1026900080431B687A689278120111464FF080429D
:1026A0000B43136011E000BF002C014040420F00BB
:1026B0001F85EB514FF080431B687A689278520176
:1026C00011464FF080420B4313607B685B78002B10
:1026D00040F083804FF080439B694FF0804223F0AD
:1026E000010393614FF080439B694FF0804223F0D8
:1026F000020393614FF080439B697A68D27812019C
:1027000011464FF080420B4393614FF080439B6929
:102710004FF0804243F0080393614FF080431B6801
:102720004FF0804243F0800313607B689B687A68B7
:10273000928802FB03F3B04AB2FBF3F3FB814FF044
:102740008042FB89D3627B68DB78062B11D17B68E2
:102750001B7B1A46FB8903FB02F3A84A82FB031288
:102760005211DB17D31ABB814FF08042BB895363F0
:1027700011E07B681B7B1A46FB8903FB02F39F4A2F
:10278000A2FB03235B099BB2FA89D31ABB814FF0EA
:102790008042BB8953634FF080435B694FF08042B6
:1027A00043F0010353614FF080431B6A4FF08042B6
:1027B00023F0020313624FF080431B6A4FF0804204
:1027C00043F0010313624FF080431B684FF08042D7
:1027D00043F00103136000F06BBD7B685B78012B55
:1027E00040F082804FF080439B694FF0804223F499
:1027F000807393614FF080439B694FF0804223F4D4
:10280000007393614FF080439B697A68D27812031A
:1028100011464FF080420B4393614FF080439B6918
:102820004FF0804243F4006393614FF080431B6894
:102830004FF0804243F0800313607B689B687A68A6
:10284000928802FB03F36C4AB2FBF3F3FB814FF077
:102850008042FB89D3627B68DB78062B10D17B68D2
:102860001B7B1A46FB8903FB02F31A46634BA3FB4F
:1028700002235B09BB814FF08042BB89936311E067
:102880007B681B7B1A46FB8903FB02F35B4AA2FBB6
:1028900003235B099BB2FA89D31ABB814FF08042B4
:1028A000BB8993634FF080435B694FF0804243F0F4
:1028B000010353614FF080431B6A4FF0804223F0C5
:1028C000200313624FF080431B6A4FF0804243F0B5
:1028D000100313624FF080431B684FF0804243F0B7
:1028E0000103136000F0E4BC7B685B78022B40F0CE
:1028F00087804FF08043DB694FF0804223F0010373
:10290000D3614FF08043DB694FF0804223F0020334
:10291000D3614FF08043DB697A68D27812011146A7
:102920004FF080420B43D3614FF08043DB694FF09F
:10293000804243F00803D3614FF080431B684FF09F
:10294000804243F0800313607B689B687A689288BA
:1029500002FB03F3284AB2FBF3F3FB814FF0804202
:10296000FB89D3627B68DB78062B10D17B681B7BED
:102970001A46FB8903FB02F31A46204BA3FB0223F2
:102980005B09BB814FF08042BB89D36311E07B6858
:102990001B7B1A46FB8903FB02F3184AA2FB0323A5
:1029A0005B099BB2FA89D31ABB814FF08042BB8985
:1029B000D3634FF080435B694FF0804243F00103E3
:1029C00053614FF080431B6A4FF0804223F4007341
:1029D00013624FF080431B6A4FF0804243F48073D0
:1029E00013624FF080431B684FF0804243F00103B5
:1029F000136000F05DBC00BF40420F001F85EB512B
:102A00007B685B78032B40F053844FF08043DB6995
:102A10004FF0804223F48073D3614FF08043DB6931
:102A20004FF0804223F40073D3614FF08043DB69A1
:102A30007A68D278120311464FF080420B43D3617B
:102A40004FF08043DB694FF0804243F40063D36171
:102A50004FF080431B684FF0804243F080031360C7
:102A60007B689B687A68928802FB03F3914AB2FB09
:102A7000F3F3FB814FF08042FB89D3627B68DB7804
:102A8000062B10D17B681B7B1A46FB8903FB02F3E4
:102A90001A46894BA3FB02235B09BB814FF080429E
:102AA000BB89136411E07B681B7B1A46FB8903FB1F
:102AB00002F3814AA2FB03235B099BB2FA89D31A72
:102AC000BB814FF08042BB8913644FF080435B6948
:102AD0004FF0804243F0010353614FF080431B6A83
:102AE0004FF0804223F4005313624FF080431B6A7F
:102AF0004FF0804243F4805313624FF080431B68D1
:102B00004FF0804243F001031360D1E36B4B1B682D
:102B10006A4A23F0040313607B689B78002B09D179
:102B2000664B1B687A68927812011146634A0B4320
:102B3000136008E0614B1B687A6892785201114675
:102B40005E4A0B4313607B685B78002B6BD15B4B59
:102B50009B695A4A23F001039361584B9B69574A7A
:102B600023F002039361554B9B697A68D278120176
:102B70001146524A0B439361504B9B694F4A43F0B5
:102B8000080393614D4B1B684C4A43F0800313606C
:102B90007B689B687A68928802FB03F3454AB2FB24
:102BA000F3F3FB81454AFB89D3627B68DB78062B14
:102BB0000FD17B681B7B1A46FB8903FB02F31A4685
:102BC0003D4BA3FB02235B09BB813C4ABB8953639A
:102BD00010E07B681B7B1A46FB8903FB02F3364A35
:102BE000A2FB03235B099BB2FA89D31ABB81334A48
:102BF000BB895363314B5B69304A43F00103536136
:102C00002E4B1B6A2D4A23F0020313622B4B1B6AC7
:102C10002A4A43F001031362284B1B68274A43F0FA
:102C20000103136055E17B685B78012B72D1234B64
:102C30009B69224A23F480739361204B9B691F4A4E
:102C400023F4007393611D4B9B697A68D278120359
:102C500011461A4A0B439361184B9B69174A43F478
:102C600000639361154B1B68144A43F080031360A3
:102C70007B689B687A68928802FB03F30D4AB2FB7B
:102C8000F3F3FB810D4AFB89D3627B68DB78062B6B
:102C900016D17B681B7B1A46FB8903FB02F31A469D
:102CA000054BA3FB02235B09BB81044ABB899363E9
:102CB00017E000BF40420F001F85EB5100040040A9
:102CC0007B681B7B1A46FB8903FB02F38B4AA2FB42
:102CD00003235B099BB2FA89D31ABB81884ABB895B
:102CE0009363874B5B69864A43F001035361844BCE
:102CF0001B6A834A23F020031362814B1B6A804ABC
:102D000043F0100313627E4B1B687D4A43F00103BE
:102D10001360DEE07B685B78022B6BD1784BDB695C
:102D2000774A23F00103D361754BDB69744A23F0C2
:102D30000203D361724BDB697A68D27812011146C3
:102D40006F4A0B43D3616E4BDB696D4A43F0080356
:102D5000D3616B4B1B686A4A43F0800313607B6846
:102D60009B687A68928802FB03F3664AB2FBF3F32E
:102D7000FB81634AFB89D3627B68DB78062B0FD12A
:102D80007B681B7B1A46FB8903FB02F31A465B4BED
:102D9000A3FB02235B09BB81594ABB89D36310E0C3
:102DA0007B681B7B1A46FB8903FB02F3534AA2FB99
:102DB00003235B099BB2FA89D31ABB81504ABB89B2
:102DC000D3634F4B5B694E4A43F0010353614C4B55
:102DD0001B6A4B4A23F400731362494B1B6A484A2F
:102DE00043F480731362464B1B68454A43F001036A
:102DF00013606EE07B685B78032B6AD1404BDB6924
:102E00003F4A23F48073D3613D4BDB693C4A23F492
:102E10000073D3613A4BDB697A68D27812031146AA
:102E2000374A0B43D361364BDB69354A43F40063C1
:102E3000D361334B1B68324A43F0800313607B68D5
:102E40009B687A68928802FB03F32E4AB2FBF3F385
:102E5000FB812B4AFB89D3627B68DB78062B0FD181
:102E60007B681B7B1A46FB8903FB02F31A46234B44
:102E7000A3FB02235B09BB81214ABB89136410E0D9
:102E80007B681B7B1A46FB8903FB02F31B4AA2FBF0
:102E900003235B099BB2FA89D31ABB81184ABB8909
:102EA0001364174B5B69164A43F001035361144BDB
:102EB0001B6A134A23F400531362114B1B6A104A16
:102EC00043F4805313620E4B1B680D4A43F0010319
:102ED00013600D4B1B680C4A23F0040313607B68DE
:102EE0009B78002B12D1084B1B687A6892781201EC
:102EF0001146054A0B43136011E000BF1F85EB51DB
:102F00000004004040420F0000080040974B1B683F
:102F10007A68927852011146944A0B4313607B6899
:102F20005B78002B6BD1914B9B69904A23F0010396
:102F300093618E4B9B698D4A23F0020393618B4B07
:102F40009B697A68D27812011146884A0B439361D3
:102F5000864B9B69854A43F008039361834B1B684A
:102F6000824A43F0800313607B689B687A6892888A
:102F700002FB03F37E4AB2FBF3F3FB817B4AFB893E
:102F8000D3627B68DB78062B0FD17B681B7B1A46EC
:102F9000FB8903FB02F31A46764BA3FB02235B0972
:102FA000BB81724ABB89536310E07B681B7B1A4666
:102FB000FB8903FB02F36F4AA2FB03235B099BB26D
:102FC000FA89D31ABB81694ABB895363674B5B6932
:102FD000664A43F001035361644B1B6A634A23F062
:102FE00002031362614B1B6A604A43F001031362E0
:102FF0005E4B1B685D4A43F0010313605AE17B6836
:103000005B78012B6BD1594B9B69584A23F4807331
:103010009361564B9B69554A23F400739361534B5C
:103020009B697A68D27812031146504A0B43936128
:103030004E4B9B694D4A43F4006393614B4B1B68B5
:103040004A4A43F0800313607B689B687A689288E1
:1030500002FB03F3464AB2FBF3F3FB81434AFB89CD
:10306000D3627B68DB78062B0FD17B681B7B1A460B
:10307000FB8903FB02F31A463E4BA3FB02235B09C9
:10308000BB813A4ABB89936310E07B681B7B1A467D
:10309000FB8903FB02F3374AA2FB03235B099BB2C4
:1030A000FA89D31ABB81314ABB8993632F4B5B6981
:1030B0002E4A43F0010353612C4B1B6A2B4A23F029
:1030C00020031362294B1B6A284A43F01003136242
:1030D000264B1B68254A43F001031360EAE07B6836
:1030E0005B78022B72D1214BDB69204A23F001036C
:1030F000D3611E4BDB691D4A23F00203D3611B4BD6
:10310000DB697A68D27812011146184A0B43D36101
:10311000164BDB69154A43F00803D361134B1B6858
:10312000124A43F0800313607B689B687A68928838
:1031300002FB03F30E4AB2FBF3F3FB810B4AFB895C
:10314000D3627B68DB78062B16D17B681B7B1A4623
:10315000FB8903FB02F31A46064BA3FB02235B0920
:10316000BB81024ABB89D36317E000BF000800405F
:1031700040420F001F85EB517B681B7B1A46FB8981
:1031800003FB02F34E4AA2FB03235B099BB2FA89BD
:10319000D31ABB814B4ABB89D3634A4B5B69494A0B
:1031A00043F001035361474B1B6A464A23F4007303
:1031B0001362444B1B6A434A43F480731362414BCE
:1031C0001B68404A43F00103136073E07B685B783F
:1031D000032B6FD13B4BDB693A4A23F48073D361F5
:1031E000384BDB69374A23F40073D361354BDB6915
:1031F0007A68D27812031146324A0B43D361314BBD
:10320000DB69304A43F40063D3612E4B1B682D4ABF
:1032100043F0800313607B689B687A68928802FBA6
:1032200003F3294AB2FBF3F3FB81264AFB89D362FD
:103230007B68DB78062B0FD17B681B7B1A46FB89EA
:1032400003FB02F31A461E4BA3FB02235B09BB815F
:103250001C4ABB89136410E07B681B7B1A46FB8900
:1032600003FB02F3164AA2FB03235B099BB2FA8914
:10327000D31ABB81134ABB891364124B5B69114A91
:1032800043F0010353610F4B1B6A0E4A23F40053B2
:1032900013620C4B1B6A0B4A43F480531362094BB5
:1032A0001B68084A43F00103136003E000BF02E01B
:1032B00000BF00E000BF00BF1437BD4680BC7047B0
:1032C0001F85EB510008004040420F0080B500AF61
:1032D000024B1B68984700BF80BD00BF6400002000
:1032E00080B500AF054B1B69044A23F0010313614D
:1032F000034B1B68984700BF80BD00BF002C0140F6
:103300006400002080B500AF054B1B69044A23F020
:1033100040031361034B1B68984700BF80BD00BF8B
:10332000002C01406400002080B500AF364B1B69C3
:103330005B0803F00103002B05D0334B1B69324AB5
:1033400023F002031361304B1B699B0803F0010358
:10335000002B05D02C4B1B692B4A23F0040313616F
:10336000294B1B69DB0803F00103002B05D0264B1A
:103370001B69254A23F008031361234B1B691B09B2
:1033800003F00103002B05D01F4B1B691E4A23F0DD
:10339000100313611C4B1B695B0A03F00103002B34
:1033A00005D0194B1B69184A23F400731361164B9F
:1033B0001B699B0A03F00103002B05D0124B1B690C
:1033C000114A23F4806313610F4B1B69DB0A03F07E
:1033D0000103002B05D00C4B1B690B4A23F400633F
:1033E0001361094B1B691B0B03F00103002B05D074
:1033F000054B1B69044A23F480531361034B1B687C
:10340000984700BF80BD00BF002C01406400002031
:1034100080B500AF4FF080431B6903F00103002B20
:1034200007D04FF080431B694FF0804223F0010327
:1034300013614FF080431B695B0803F00103002B0D
:1034400007D04FF080431B694FF0804223F0020306
:1034500013614FF080431B699B0803F00103002BAD
:1034600007D04FF080431B694FF0804223F00403E4
:1034700013614FF080431B69DB0803F00103002B4D
:1034800007D04FF080431B694FF0804223F00803C0
:1034900013614FF080431B691B0903F00103002BEC
:1034A00007D04FF080431B694FF0804223F0100398
:1034B00013614FF080431B699B0903F00103002B4C
:1034C00007D04FF080431B694FF0804223F0400348
:1034D00013614FF080431B695B0A03F00103002B6B
:1034E00007D04FF080431B694FF0804223F40073F4
:1034F00013614FF080431B699B0A03F00103002B0B
:1035000007D04FF080431B694FF0804223F4806363
:1035100013614FF080431B69DB0A03F00103002BAA
:1035200007D04FF080431B694FF0804223F40063C3
:1035300013614FF080431B691B0B03F00103002B49
:1035400007D04FF080431B694FF0804223F4805333
:103550001361024B5B68984700BF80BD6400002088
:1035600080B500AF424B1B6903F00103002B05D06F
:103570003F4B1B693E4A23F0010313613C4B1B691F
:103580005B0803F00103002B05D0394B1B69384A57
:1035900023F002031361364B1B699B0803F0010300
:1035A000002B05D0324B1B69314A23F00403136111
:1035B0002F4B1B69DB0803F00103002B05D02C4BBC
:1035C0001B692B4A23F008031361294B1B691B0954
:1035D00003F00103002B05D0254B1B69244A23F07F
:1035E00010031361224B1B699B0903F00103002B9D
:1035F00005D01F4B1B691E4A23F0400313611C4B6F
:103600001B695B0A03F00103002B05D0184B1B69F3
:10361000174A23F400731361154B1B699B0A03F0CF
:103620000103002B05D0124B1B69114A23F4806360
:1036300013610F4B1B69DB0A03F00103002B05D05C
:103640000B4B1B690A4A23F400631361084B1B6987
:103650001B0B03F00103002B05D0054B1B69044A2B
:1036600023F480531361034B9B68984700BF80BDD0
:10367000000400406400002080B500AF424B1B698D
:1036800003F00103002B05D03F4B1B693E4A23F09A
:10369000010313613C4B1B695B0803F00103002B22
:1036A00005D0394B1B69384A23F002031361364BAE
:1036B0001B699B0803F00103002B05D0324B1B69EB
:1036C000314A23F0040313612F4B1B69DB0803F01D
:1036D0000103002B05D02C4B1B692B4A23F0080358
:1036E0001361294B1B691B0903F00103002B05D053
:1036F000254B1B69244A23F010031361224B1B69DD
:103700009B0903F00103002B05D01F4B1B691E4AC8
:1037100023F0400313611C4B1B695B0A03F0010398
:10372000002B05D0184B1B69174A23F40073136153
:10373000154B1B699B0A03F00103002B05D0124BAC
:103740001B69114A23F4806313610F4B1B69DB0A69
:1037500003F00103002B05D00B4B1B690A4A23F42D
:1037600000631361084B1B691B0B03F00103002B63
:1037700005D0054B1B69044A23F480531361034BA6
:10378000DB68984700BF80BD00080040640000204F
:1037900080B483B000AF78607B681B78022B55D073
:1037A000032B00F0A380012B00D0EFE07B689B7817
:1037B000012B0DD1784BDB687A68527811037A6857
:1037C000927892020A431146734A0B43D3600CE08D
:1037D000714BDB687A68527811037A6892785202EA
:1037E0000A4311466C4A0B43D3606B4B1B697A68E2
:1037F000D27812031146684A0B431361664B5B692A
:103800007A681279D1017A68127992010A431146D5
:10381000614A0B435361604B9B687A68D2881146BA
:103820005D4A0B4393605C4BDB685B4A43F00403E7
:10383000D360594BDB68584A43F00803D360564BBA
:10384000DB68554A43F40053D3609FE07B689B7864
:10385000012B0DD1514BDB687A68527811037A68DD
:10386000927892020A4311464C4A0B43D3600CE013
:103870004A4BDB687A68527811037A689278520270
:103880000A431146454A0B43D360444B1B697A688F
:10389000D27812031146414A0B4313613F4B5B69D7
:1038A0007A681279D1017A68127992010A43114635
:1038B0003A4A0B435361394B9B687A68D288114668
:1038C000364A0B439360354BDB68344A43F00403BC
:1038D000D360324BDB68314A43F00803D3602F4B8F
:1038E000DB682E4A43F40053D3604FE07B689B783B
:1038F000012B0DD12A4BDB687A68527811037A6864
:10390000927892020A431146254A0B43D3600CE099
:10391000234BDB687A68527811037A6892785202F6
:103920000A4311461E4A0B43D3601D4B1B697A683C
:10393000D278120311461A4A0B431361184B5B6984
:103940007A681279D1017A68127992010A43114694
:10395000134A0B435361124B9B687A68D288114615
:103960000F4A0B4393600E4BDB680D4A43F0040390
:10397000D3600B4BDB680A4A43F00803D360084B63
:10398000DB68074A43F40053D36000BF00BF0C3725
:10399000BD4680BC704700BF003801400044004075
:1039A0000048004080B485B000AF786039600023E3
:1039B000FB737B681B78022B12D0032B1FD0012BCB
:1039C00031D11C4B1B685B0903F00103002B25D090
:1039D000184B5B68DAB23B681A700123FB731DE079
:1039E000154B1B685B0903F00103002B18D0124B29
:1039F0005B68DAB23B681A700123FB7310E00F4B6F
:103A00001B685B0903F00103002B0BD00B4B5B68B9
:103A1000DAB23B681A700123FB7303E000BF02E0D7
:103A200000BF00E000BFFB7B18461437BD4680BCDA
:103A3000704700BF0038014000440040004800408B
:103A400080B500AF0B4B1B680A4B1B68094B1B680A
:103A5000084B1B68074B1B68064B1B68054B1B6814
:103A6000044B1B68034B5B68034B1B68984700BF04
:103A700080BD00BF003801407400002080B500AF59
:103A80000B4B1B680A4B1B68094B1B68084B1B68D8
:103A9000074B1B68064B1B68054B1B68044B1B68D8
:103AA000034B5B68034B5B68984700BF80BD00BF5A
:103AB000004400407400002080B500AF0B4B1B6831
:103AC0000A4B1B68094B1B68084B1B68074B1B689C
:103AD000064B1B68054B1B68044B1B68034B5B685C
:103AE000034B9B68984700BF80BD00BF0048004063
:103AF0007400002090B593B000AF002387F84730E2
:103B0000D64A07F1300392E80300186004331980A5
:103B1000D34B07F120040FCB84E80F00D14B07F102
:103B200010040FCB84E80F00CF4A07F1080392E896
:103B3000030083E80300FEF76DF90220FEF7D4F9D5
:103B40000120FEF7D1F9FEF733FAFDF7E7FE002179
:103B50000020FCF783FE00210120FCF77FFE0221FC
:103B60000220FCF77BFE02210320FCF777FE0221F6
:103B70000420FCF773FE02210520FCF76FFE0221F2
:103B80000620FCF76BFE02210720FCF767FE0221EE
:103B90000820FCF763FE0A210920FCF75FFE0821DC
:103BA0000A20FCF75BFE0A211020FCF757FE0A21D1
:103BB0001120FCF753FEFCF795FCFDF7CFFF07F152
:103BC00008031846FFF7E4FD07F130031846FEF737
:103BD00057FA07F120031846FEF746FB07F11003DA
:103BE0001846FEF741FB0023FB714D2387F8463052
:103BF0004D2387F84530432387F84430002387F866
:103C00004330002387F84230002387F841300023F7
:103C100087F840300023FB630023BB63934A0021F5
:103C20000020FEF7CBF8924A00210120FEF7C6F8EB
:103C30009048FEF7C9F9904A00210020FEF7BEF82F
:103C40008E4A00210120FEF7B9F897F844301A4651
:103C50000E210020FEF79BF897F846301A46022105
:103C60000120FEF794F897F846304D2B0AD197F8CB
:103C700042304FF000041A46234603210120FEF78C
:103C8000B2F80DE097F84630412B09D197F8413052
:103C90004FF000041A46234603210120FEF7A3F843
:103CA00097F845301A460A210120FEF770F897F878
:103CB00045304D2B09D197F843304FF000041A4698
:103CC00023460B210120FEF78EF897F84530412B53
:103CD00009D197F840304FF000041A4623460B21D3
:103CE0000120FEF780F897F84730122B00F2FD858F
:103CF00001A252F823F000BF453D0008413F0008F3
:103D00000F410008C94200086B440008A5440008A0
:103D1000D54400080F4500084945000883450008C0
:103D2000B5450008F14500082D4600086946000821
:103D3000C1460008FB460008374700086D3D0008F3
:103D400009480008FA1D07F1080311461846FFF755
:103D500029FE0346002B04D0112387F8473000F0DA
:103D6000C8BD122387F8473000F0C3BDFB79442B50
:103D700003D1012387F84730DEE0FB79462B03D1DE
:103D8000022387F84730D7E0FB794C2B03D103237C
:103D900087F84730D0E0FB79312B07D197F84630D0
:103DA0004D2B03D1042387F84730C5E0FB79362B30
:103DB00007D197F846304D2B03D1052387F84730BC
:103DC000BAE0FB79352B07D197F846304D2B03D15C
:103DD000062387F84730AFE0FB79342B07D197F8FB
:103DE00046304D2B03D1072387F84730A4E0FB79F9
:103DF000332B07D197F846304D2B03D1082387F892
:103E0000473099E0FB79322B07D197F846304D2B9C
:103E100003D10E2387F847308EE0FB79432B07D17F
:103E200097F845304D2B03D1092387F8473083E0BD
:103E3000FB79422B07D197F845304D2B03D10A234C
:103E400087F8473078E0FB79412B19D197F8453056
:103E50004D2B15D10B2387F847306DE0D44A00086D
:103E6000DC4A0008EC4A0008FC4A0008CC4900087B
:103E7000E0490008C0C62D00F4490008084A0008BF
:103E8000FB79392B07D197F845304D2B03D10C2303
:103E900087F8473050E0FB79372B07D197F845304A
:103EA0004D2B03D10D2387F8473045E0FB79382BA4
:103EB00007D197F845304D2B03D10F2387F84730B2
:103EC0003AE097F84730012B2FD197F84730022B73
:103ED0002BD197F84730032B27D197F84730042B85
:103EE00023D197F84730052B1FD197F84730062B81
:103EF0001BD197F84730072B17D197F84730082B7D
:103F000013D197F84730092B0FD197F847300A2B78
:103F10000BD197F847300B2B07D197F847300C2B74
:103F200003D197F847300D2B06D097F84730112B67
:103F300002D1102387F847300023FB7100F0D9BC71
:103F400097F844304F2B6DD101210820FDF766FC16
:103F5000432387F84430D34A00210020FDF72EFF89
:103F6000D14A00210120FDF729FFD048FEF72CF8A7
:103F7000CF4A00210020FDF721FFCE4A0021012079
:103F8000FDF71CFF97F844301A460E210020FDF77C
:103F9000FEFE97F846301A4602210120FDF7F7FE93
:103FA00097F846304D2B0AD197F842304FF0000475
:103FB0001A46234603210120FDF715FF0DE097F86F
:103FC0004630412B09D197F841304FF000041A4692
:103FD000234603210120FDF706FF97F845301A46D6
:103FE0000A210120FDF7D3FE97F845304D2B0AD169
:103FF00097F843304FF000041A4623460B21012066
:10400000FDF7F1FE7FE097F84530412B7BD197F823
:1040100040304FF000041A4623460B210120FDF7E3
:10402000E2FE70E097F84430432B6CD10021082069
:10403000FDF7F4FB4F2387F844309A4A0021002013
:10404000FDF7BCFE9C4A00210120FDF7B7FE974812
:10405000FDF7BAFF964A00210020FDF7AFFE954A12
:1040600000210120FDF7AAFE97F844301A460E21E0
:104070000020FDF78CFE97F846301A4602210120F9
:10408000FDF785FE97F846304D2B0AD197F8423060
:104090004FF000041A46234603210120FDF7A3FE3A
:1040A0000DE097F84630412B09D197F841304FF099
:1040B00000041A46234603210120FDF794FE97F8D9
:1040C00045301A460A210120FDF761FE97F8453078
:1040D0004D2B0AD197F843304FF000041A4623467F
:1040E0000B210120FDF77FFE0DE097F84530412BB5
:1040F00009D197F840304FF000041A4623460B21AF
:104100000120FDF770FE122387F84730F1E397F89E
:104110004530412B5FD197F8433087F82C3007F1B9
:1041200020031846FEF7A0F84D2387F84530634A70
:1041300000210020FDF742FE614A00210120FDF729
:104140003DFE5A48FDF740FF594A00210020FDF787
:1041500035FE584A00210120FDF730FE97F8443023
:104160001A460E210020FDF712FE97F846301A4637
:1041700002210120FDF70BFE97F846304D2B0AD1A6
:1041800097F842304FF000041A46234603210120DD
:10419000FDF729FE0DE097F84630412B09D197F83D
:1041A00041304FF000041A46234603210120FDF759
:1041B0001AFE97F845301A460A210120FDF7E7FD5F
:1041C00097F843304FF000041A4623460B21012094
:1041D000FDF709FE62E097F845304D2B5ED197F868
:1041E000403087F82C3007F120031846FEF73CF8E2
:1041F000412387F84530314A00210020FDF7DEFDDC
:10420000304A00210120FDF7D9FD2848FDF7DCFEEA
:10421000274A00210020FDF7D1FD264A0021012078
:10422000FDF7CCFD97F844301A460E210020FDF72B
:10423000AEFD97F846301A4602210120FDF7A7FD92
:1042400097F846304D2B0AD197F842304FF00004D2
:104250001A46234603210120FDF7C5FD0DE097F81E
:104260004630412B09D197F841304FF000041A46EF
:10427000234603210120FDF7B6FD97F845301A4685
:104280000A210120FDF783FD97F840304FF000042C
:104290001A4623460B210120FDF7A5FD122387F8BE
:1042A000473026E31C4A0008304A000840420F000D
:1042B000F4490008084A0008444A0008584A00081F
:1042C0006C4A0008804A000897F84630412B62D1BA
:1042D00097F842303B7707F110031846FDF7C4FF0B
:1042E0004D2387F84630EF4A00210020FDF766FD98
:1042F000ED4A00210120FDF761FDEC48FDF764FE69
:10430000EB4A00210020FDF759FDEA4A0021012077
:10431000FDF754FD97F844301A460E210020FDF7B2
:1043200036FD97F846301A4602210120FDF72FFD91
:1043300097F842304FF000041A462346032101202B
:10434000FDF751FD97F845301A460A210120FDF787
:104350001EFD97F845304D2B09D197F843304FF0AB
:1043600000041A4623460B210120FDF73CFD97F877
:104370004530412B75D197F840304FF000041A4674
:1043800023460B210120FDF72EFD202205210120CF
:10439000FDF7FDFC65E097F846304D2B61D197F8AD
:1043A00041303B7707F110031846FDF75DFF4123CD
:1043B00087F84630BB4A00210020FDF7FFFCBE4ACB
:1043C00000210120FDF7FAFCB848FDF7FDFDB84AD1
:1043D00000210020FDF7F2FCB64A00210120FDF784
:1043E000EDFC97F844301A460E210020FDF7CFFC73
:1043F00097F846301A4602210120FDF7C8FC97F8CD
:1044000041304FF000041A46234603210120FDF7F6
:10441000EAFC97F845301A460A210120FDF7B7FC5F
:1044200097F845304D2B09D197F843304FF00004F1
:104430001A4623460B210120FDF7D5FC97F845309D
:10444000412B0ED197F840304FF000041A46234616
:104450000B210120FDF7C7FC202205210120FDF7DB
:1044600096FC122387F8473043E200233B7707F19D
:1044700010031846FDF7F8FE002387F8423097F83E
:1044800042304FF000041A46234603210120FDF775
:10449000AAFC8A4A04210120FDF790FC122387F828
:1044A000473026E264233B7707F110031846FDF7F7
:1044B000DBFE642387F8423097F842304FF0000467
:1044C0001A46234603210120FDF78DFC122387F8AD
:1044D00047300EE24B233B7707F110031846FDF7F8
:1044E000C3FE4B2387F8423097F842304FF0000468
:1044F0001A46234603210120FDF775FC20220521E1
:104500000120FDF744FC122387F84730F1E1322304
:104510003B7707F110031846FDF7A6FE322387F814
:10452000423097F842304FF000041A4623460321E8
:104530000120FDF758FC202205210120FDF727FC72
:10454000122387F84730D4E119233B7707F1100392
:104550001846FDF789FE192387F8423097F8423054
:104560004FF000041A46234603210120FDF73BFCCF
:10457000202205210120FDF70AFC122387F847308D
:10458000B7E1642387F82C3007F120031846FDF7C4
:104590006BFE642387F8433097F843304FF00004F4
:1045A0001A4623460B210120FDF71DFC122387F834
:1045B00047309EE14B2387F82C3007F12003184643
:1045C000FDF752FE4B2387F8433097F843304FF006
:1045D00000041A4623460B210120FDF704FC20228B
:1045E0000D210120FDF7D3FB122387F8473080E12E
:1045F000322387F82C3007F120031846FDF734FEEC
:10460000322387F8433097F843304FF000041A46BE
:1046100023460B210120FDF7E6FB20220D2101207E
:10462000FDF7B5FB122387F8473062E1192387F8BD
:104630002C3007F120031846FDF716FE192387F8E2
:10464000433097F843304FF000041A4623460B21BD
:104650000120FDF7C8FB20220D210120FDF797FB6B
:10466000122387F8473044E1002387F82C3007F104
:1046700020031846FDF7F8FD002387F8433097F82C
:1046800043304FF000041A4623460B210120FDF76A
:10469000AAFB0A4A0C210120FDF790FB122387F8A0
:1046A000473026E1944A00086C4A000840420F0057
:1046B000F4490008084A0008804A0008A84A00088F
:1046C0000A233B7707F110031846FDF7CDFD0A23B7
:1046D00087F8423097F842304FF000041A462346DC
:1046E00003210120FDF77FFB202205210120FDF79A
:1046F0004EFB122387F84730FBE00A2387F82C3063
:1047000007F120031846FDF7AFFD0A2387F8433071
:1047100097F843304FF000041A4623460B2101203E
:10472000FDF761FB20220D210120FDF730FB122354
:1047300087F84730DDE0704A00210020FDF73EFB9E
:104740006E4A00210120FDF739FB6D48FDF73CFC66
:104750006C4A00210020FDF731FB6B4A002101204B
:10476000FDF72CFB97F844301A460E210020FDF788
:104770000EFB97F846301A4602210120FDF707FB91
:1047800097F846304D2B0AD197F842304FF000048D
:104790001A46234603210120FDF725FB0DE097F87B
:1047A0004630412B09D197F841304FF000041A46AA
:1047B000234603210120FDF716FB97F845301A46E2
:1047C0000A210120FDF7E3FA97F845304D2B09D176
:1047D00097F843304FF000041A4623460B2101207E
:1047E000FDF701FB97F84530412B09D197F8403090
:1047F0004FF000041A4623460B210120FDF7F3FA7F
:10480000122387F8473074E0BB6B002B25D10120C1
:10481000FBF7C0FE034687F8403097F84530412B40
:1048200017D197F8403087F82C3007F1200318464D
:10483000FDF71AFD354A0C210120FDF7BFFA97F864
:1048400040304FF000041A4623460B210120FDF7AB
:10485000CAFABB6B0133BB630FE0BB6B42F20F7252
:10486000934203D8BB6B0133BB6306E0BB6B42F2E0
:104870001072934201D10023BB63FB6B002B22D14A
:104880000020FBF7A1FE0346DBB2C3F1640387F807
:10489000413097F84630412B11D197F841303B77A2
:1048A00007F110031846FDF7DFFC97F841304FF091
:1048B00000041A46234603210120FDF794FAFB6BFE
:1048C0000133FB630DE0FB6B114A934203D8FB6B92
:1048D0000133FB6305E0FB6B0E4A934201D10023D9
:1048E000FB63002387F8473003E0122387F8473043
:1048F00000BFFFF7F8B900BFAC4A0008C04A000883
:1049000040420F00F4490008084A0008A84A00087D
:104910009F860100A08601000D488546AFF3008008
:104920000C480D490D4A002302E0D458C45004330A
:10493000C4188C42F9D30A4A0A4C002301E01360E0
:104940000432A242FBD300F011F8FFF7D3F8FEE7E0
:10495000005000200000002000000020704B0008E4
:104960000000002080000020FEE7000070B5002558
:104970000C4E0D4CA41BA410A54209D100F01AF84E
:1049800000250A4E0A4CA41BA410A54205D170BDF7
:1049900056F8253098470135EEE756F82530984708
:1049A0000135F2E7684B0008684B0008684B0008C7
:1049B0006C4B0008F8B500BFF8BC08BC9E467047B9
:0C49C000F8B500BFF8BC08BC9E4670476C
:1049CC00202057656C636F6D652020546F2020206C
:1049DC00000000002020536D61727420486F6D65DB
:1049EC002E2020200000000053797374656D204D3B
:1049FC0061696E20443A2020000000004C3A2020CF
:104A0C0020202520533A20202020252000000000C3
:104A1C002020202020444F4F5220202020202020D6
:104A2C000000000020202020434C4F534544202000
:104A3C002020202000000000202020204F50454E38
:104A4C004544202020202020000000002020202091
:104A5C002046414E20202020202020200000000055
:104A6C00202020204D414E55414C2020202020203C
:104A7C000000000020202020204155544F202020F1
:104A8C002020202000000000202020204C494748F6
:104A9C005453202020202020000000002020000063
:104AAC0020202020494E56414C49442020202020D3
:104ABC000000000020202121434F4D4D414E442148
:104ACC00212020200000000002010000080000004E
:104ADC00020200060100000032000000000000008D
:104AEC00020300060100000032000000000000007C
:104AFC000100000000004103020202020202020255
:104B0C00020202020202022F020202022F0202021F
:104B1C000202020202020202020202020202020269
:104B2C000202020202022F0200010204060C0E0F06
:104B3C0010000000000203040506090A0B0C0E000D
:104B4C000001020304050B0E0F1112131415161994
:044B5C001A1B1C1DE7
:084B6000B0B6FF7F0100000068
:044B680055010008EB
:044B6C00310100080B
:04000005080049198D
:00000001FF
